{
    "_format": "hh-sol-artifact-1",
    "contractName": "RoboPunksNFT",
    "sourceName": "contracts/RoboPunksNFT.sol",
    "abi": [
        {
            "inputs": [],
            "stateMutability": "payable",
            "type": "constructor"
        },
        {
            "anonymous": false,
            "inputs": [
                {
                    "indexed": true,
                    "internalType": "address",
                    "name": "owner",
                    "type": "address"
                },
                {
                    "indexed": true,
                    "internalType": "address",
                    "name": "approved",
                    "type": "address"
                },
                {
                    "indexed": true,
                    "internalType": "uint256",
                    "name": "tokenId",
                    "type": "uint256"
                }
            ],
            "name": "Approval",
            "type": "event"
        },
        {
            "anonymous": false,
            "inputs": [
                {
                    "indexed": true,
                    "internalType": "address",
                    "name": "owner",
                    "type": "address"
                },
                {
                    "indexed": true,
                    "internalType": "address",
                    "name": "operator",
                    "type": "address"
                },
                {
                    "indexed": false,
                    "internalType": "bool",
                    "name": "approved",
                    "type": "bool"
                }
            ],
            "name": "ApprovalForAll",
            "type": "event"
        },
        {
            "anonymous": false,
            "inputs": [
                {
                    "indexed": true,
                    "internalType": "address",
                    "name": "previousOwner",
                    "type": "address"
                },
                {
                    "indexed": true,
                    "internalType": "address",
                    "name": "newOwner",
                    "type": "address"
                }
            ],
            "name": "OwnershipTransferred",
            "type": "event"
        },
        {
            "anonymous": false,
            "inputs": [
                {
                    "indexed": true,
                    "internalType": "address",
                    "name": "from",
                    "type": "address"
                },
                {
                    "indexed": true,
                    "internalType": "address",
                    "name": "to",
                    "type": "address"
                },
                {
                    "indexed": true,
                    "internalType": "uint256",
                    "name": "tokenId",
                    "type": "uint256"
                }
            ],
            "name": "Transfer",
            "type": "event"
        },
        {
            "inputs": [
                {
                    "internalType": "address",
                    "name": "to",
                    "type": "address"
                },
                {
                    "internalType": "uint256",
                    "name": "tokenId",
                    "type": "uint256"
                }
            ],
            "name": "approve",
            "outputs": [],
            "stateMutability": "nonpayable",
            "type": "function"
        },
        {
            "inputs": [
                {
                    "internalType": "address",
                    "name": "owner",
                    "type": "address"
                }
            ],
            "name": "balanceOf",
            "outputs": [
                {
                    "internalType": "uint256",
                    "name": "",
                    "type": "uint256"
                }
            ],
            "stateMutability": "view",
            "type": "function"
        },
        {
            "inputs": [
                {
                    "internalType": "uint256",
                    "name": "tokenId",
                    "type": "uint256"
                }
            ],
            "name": "getApproved",
            "outputs": [
                {
                    "internalType": "address",
                    "name": "",
                    "type": "address"
                }
            ],
            "stateMutability": "view",
            "type": "function"
        },
        {
            "inputs": [
                {
                    "internalType": "address",
                    "name": "owner",
                    "type": "address"
                },
                {
                    "internalType": "address",
                    "name": "operator",
                    "type": "address"
                }
            ],
            "name": "isApprovedForAll",
            "outputs": [
                {
                    "internalType": "bool",
                    "name": "",
                    "type": "bool"
                }
            ],
            "stateMutability": "view",
            "type": "function"
        },
        {
            "inputs": [],
            "name": "isPublicMintEnabled",
            "outputs": [
                {
                    "internalType": "bool",
                    "name": "",
                    "type": "bool"
                }
            ],
            "stateMutability": "view",
            "type": "function"
        },
        {
            "inputs": [],
            "name": "maxPerWallet",
            "outputs": [
                {
                    "internalType": "uint256",
                    "name": "",
                    "type": "uint256"
                }
            ],
            "stateMutability": "view",
            "type": "function"
        },
        {
            "inputs": [],
            "name": "maxSupply",
            "outputs": [
                {
                    "internalType": "uint256",
                    "name": "",
                    "type": "uint256"
                }
            ],
            "stateMutability": "view",
            "type": "function"
        },
        {
            "inputs": [
                {
                    "internalType": "uint256",
                    "name": "_quantity",
                    "type": "uint256"
                }
            ],
            "name": "mint",
            "outputs": [],
            "stateMutability": "payable",
            "type": "function"
        },
        {
            "inputs": [],
            "name": "mintPrice",
            "outputs": [
                {
                    "internalType": "uint256",
                    "name": "",
                    "type": "uint256"
                }
            ],
            "stateMutability": "view",
            "type": "function"
        },
        {
            "inputs": [],
            "name": "name",
            "outputs": [
                {
                    "internalType": "string",
                    "name": "",
                    "type": "string"
                }
            ],
            "stateMutability": "view",
            "type": "function"
        },
        {
            "inputs": [],
            "name": "owner",
            "outputs": [
                {
                    "internalType": "address",
                    "name": "",
                    "type": "address"
                }
            ],
            "stateMutability": "view",
            "type": "function"
        },
        {
            "inputs": [
                {
                    "internalType": "uint256",
                    "name": "tokenId",
                    "type": "uint256"
                }
            ],
            "name": "ownerOf",
            "outputs": [
                {
                    "internalType": "address",
                    "name": "",
                    "type": "address"
                }
            ],
            "stateMutability": "view",
            "type": "function"
        },
        {
            "inputs": [],
            "name": "renounceOwnership",
            "outputs": [],
            "stateMutability": "nonpayable",
            "type": "function"
        },
        {
            "inputs": [
                {
                    "internalType": "address",
                    "name": "from",
                    "type": "address"
                },
                {
                    "internalType": "address",
                    "name": "to",
                    "type": "address"
                },
                {
                    "internalType": "uint256",
                    "name": "tokenId",
                    "type": "uint256"
                }
            ],
            "name": "safeTransferFrom",
            "outputs": [],
            "stateMutability": "nonpayable",
            "type": "function"
        },
        {
            "inputs": [
                {
                    "internalType": "address",
                    "name": "from",
                    "type": "address"
                },
                {
                    "internalType": "address",
                    "name": "to",
                    "type": "address"
                },
                {
                    "internalType": "uint256",
                    "name": "tokenId",
                    "type": "uint256"
                },
                {
                    "internalType": "bytes",
                    "name": "_data",
                    "type": "bytes"
                }
            ],
            "name": "safeTransferFrom",
            "outputs": [],
            "stateMutability": "nonpayable",
            "type": "function"
        },
        {
            "inputs": [
                {
                    "internalType": "address",
                    "name": "operator",
                    "type": "address"
                },
                {
                    "internalType": "bool",
                    "name": "approved",
                    "type": "bool"
                }
            ],
            "name": "setApprovalForAll",
            "outputs": [],
            "stateMutability": "nonpayable",
            "type": "function"
        },
        {
            "inputs": [
                {
                    "internalType": "string",
                    "name": "_baseTokenUri",
                    "type": "string"
                }
            ],
            "name": "setBaseTokenUri",
            "outputs": [],
            "stateMutability": "nonpayable",
            "type": "function"
        },
        {
            "inputs": [
                {
                    "internalType": "bool",
                    "name": "_isPublicMintEnabled",
                    "type": "bool"
                }
            ],
            "name": "setIsPublicMintEnabled",
            "outputs": [],
            "stateMutability": "nonpayable",
            "type": "function"
        },
        {
            "inputs": [
                {
                    "internalType": "bytes4",
                    "name": "interfaceId",
                    "type": "bytes4"
                }
            ],
            "name": "supportsInterface",
            "outputs": [
                {
                    "internalType": "bool",
                    "name": "",
                    "type": "bool"
                }
            ],
            "stateMutability": "view",
            "type": "function"
        },
        {
            "inputs": [],
            "name": "symbol",
            "outputs": [
                {
                    "internalType": "string",
                    "name": "",
                    "type": "string"
                }
            ],
            "stateMutability": "view",
            "type": "function"
        },
        {
            "inputs": [
                {
                    "internalType": "uint256",
                    "name": "_tokenId",
                    "type": "uint256"
                }
            ],
            "name": "tokenURI",
            "outputs": [
                {
                    "internalType": "string",
                    "name": "",
                    "type": "string"
                }
            ],
            "stateMutability": "view",
            "type": "function"
        },
        {
            "inputs": [],
            "name": "totalSupply",
            "outputs": [
                {
                    "internalType": "uint256",
                    "name": "",
                    "type": "uint256"
                }
            ],
            "stateMutability": "view",
            "type": "function"
        },
        {
            "inputs": [
                {
                    "internalType": "address",
                    "name": "from",
                    "type": "address"
                },
                {
                    "internalType": "address",
                    "name": "to",
                    "type": "address"
                },
                {
                    "internalType": "uint256",
                    "name": "tokenId",
                    "type": "uint256"
                }
            ],
            "name": "transferFrom",
            "outputs": [],
            "stateMutability": "nonpayable",
            "type": "function"
        },
        {
            "inputs": [
                {
                    "internalType": "address",
                    "name": "newOwner",
                    "type": "address"
                }
            ],
            "name": "transferOwnership",
            "outputs": [],
            "stateMutability": "nonpayable",
            "type": "function"
        },
        {
            "inputs": [
                {
                    "internalType": "address",
                    "name": "",
                    "type": "address"
                }
            ],
            "name": "walletMints",
            "outputs": [
                {
                    "internalType": "uint256",
                    "name": "",
                    "type": "uint256"
                }
            ],
            "stateMutability": "view",
            "type": "function"
        },
        {
            "inputs": [],
            "name": "withdraw",
            "outputs": [],
            "stateMutability": "nonpayable",
            "type": "function"
        },
        {
            "inputs": [],
            "name": "withdrawWallet",
            "outputs": [
                {
                    "internalType": "address payable",
                    "name": "",
                    "type": "address"
                }
            ],
            "stateMutability": "view",
            "type": "function"
        }
    ],
    "bytecode": "0x60806040526040518060400160405280600981526020017f526f626f50756e6b7300000000000000000000000000000000000000000000008152506040518060400160405280600281526020017f525000000000000000000000000000000000000000000000000000000000000081525081600090805190602001906200008892919062000214565b508060019080519060200190620000a192919062000214565b505050620000c4620000b86200014660201b60201c565b6200014e60201b60201c565b66470de4df82000060078190555060006008819055506103e86009819055506003600a81905550737809f0b63ac39a97f2d6216fb0b954393eb1bb35600d60006101000a81548173ffffffffffffffffffffffffffffffffffffffff021916908373ffffffffffffffffffffffffffffffffffffffff16021790555062000329565b600033905090565b6000600660009054906101000a900473ffffffffffffffffffffffffffffffffffffffff16905081600660006101000a81548173ffffffffffffffffffffffffffffffffffffffff021916908373ffffffffffffffffffffffffffffffffffffffff1602179055508173ffffffffffffffffffffffffffffffffffffffff168173ffffffffffffffffffffffffffffffffffffffff167f8be0079c531659141344cd1fd0a4f28419497f9722a3daafe3b4186f6b6457e060405160405180910390a35050565b8280546200022290620002c4565b90600052602060002090601f01602090048101928262000246576000855562000292565b82601f106200026157805160ff191683800117855562000292565b8280016001018555821562000292579182015b828111156200029157825182559160200191906001019062000274565b5b509050620002a19190620002a5565b5090565b5b80821115620002c0576000816000905550600101620002a6565b5090565b60006002820490506001821680620002dd57607f821691505b60208210811415620002f457620002f3620002fa565b5b50919050565b7f4e487b7100000000000000000000000000000000000000000000000000000000600052602260045260246000fd5b61388080620003396000396000f3fe60806040526004361061019c5760003560e01c806370a08231116100ec578063a22cb4651161008a578063d5abeb0111610064578063d5abeb0114610593578063e985e9c5146105be578063f0293fd3146105fb578063f2fde38b146106385761019c565b8063a22cb46514610504578063b88d4fde1461052d578063c87b56dd146105565761019c565b80638da5cb5b116100c65780638da5cb5b1461046957806395652cfa1461049457806395d89b41146104bd578063a0712d68146104e85761019c565b806370a08231146103ea578063715018a61461042757806385d178f41461043e5761019c565b80632373ac221161015957806342842e0e1161013357806342842e0e1461032e578063453c2310146103575780636352211e146103825780636817c76c146103bf5761019c565b80632373ac22146102c557806323b872dd146102ee5780633ccfd60b146103175761019c565b80630116bc2d146101a157806301ffc9a7146101cc57806306fdde0314610209578063081812fc14610234578063095ea7b31461027157806318160ddd1461029a575b600080fd5b3480156101ad57600080fd5b506101b6610661565b6040516101c39190612af3565b60405180910390f35b3480156101d857600080fd5b506101f360048036038101906101ee91906124ea565b610674565b6040516102009190612af3565b60405180910390f35b34801561021557600080fd5b5061021e610756565b60405161022b9190612b0e565b60405180910390f35b34801561024057600080fd5b5061025b60048036038101906102569190612581565b6107e8565b6040516102689190612a71565b60405180910390f35b34801561027d57600080fd5b5061029860048036038101906102939190612485565b61086d565b005b3480156102a657600080fd5b506102af610985565b6040516102bc9190612dd0565b60405180910390f35b3480156102d157600080fd5b506102ec60048036038101906102e791906124c1565b61098b565b005b3480156102fa57600080fd5b506103156004803603810190610310919061237f565b610a24565b005b34801561032357600080fd5b5061032c610a84565b005b34801561033a57600080fd5b506103556004803603810190610350919061237f565b610bd1565b005b34801561036357600080fd5b5061036c610bf1565b6040516103799190612dd0565b60405180910390f35b34801561038e57600080fd5b506103a960048036038101906103a49190612581565b610bf7565b6040516103b69190612a71565b60405180910390f35b3480156103cb57600080fd5b506103d4610ca9565b6040516103e19190612dd0565b60405180910390f35b3480156103f657600080fd5b50610411600480360381019061040c919061231a565b610caf565b60405161041e9190612dd0565b60405180910390f35b34801561043357600080fd5b5061043c610d67565b005b34801561044a57600080fd5b50610453610def565b6040516104609190612a8c565b60405180910390f35b34801561047557600080fd5b5061047e610e15565b60405161048b9190612a71565b60405180910390f35b3480156104a057600080fd5b506104bb60048036038101906104b6919061253c565b610e3f565b005b3480156104c957600080fd5b506104d2610ed1565b6040516104df9190612b0e565b60405180910390f35b61050260048036038101906104fd9190612581565b610f63565b005b34801561051057600080fd5b5061052b60048036038101906105269190612449565b61118f565b005b34801561053957600080fd5b50610554600480360381019061054f91906123ce565b6111a5565b005b34801561056257600080fd5b5061057d60048036038101906105789190612581565b611207565b60405161058a9190612b0e565b60405180910390f35b34801561059f57600080fd5b506105a8611283565b6040516105b59190612dd0565b60405180910390f35b3480156105ca57600080fd5b506105e560048036038101906105e09190612343565b611289565b6040516105f29190612af3565b60405180910390f35b34801561060757600080fd5b50610622600480360381019061061d919061231a565b61131d565b60405161062f9190612dd0565b60405180910390f35b34801561064457600080fd5b5061065f600480360381019061065a919061231a565b611335565b005b600b60009054906101000a900460ff1681565b60007f80ac58cd000000000000000000000000000000000000000000000000000000007bffffffffffffffffffffffffffffffffffffffffffffffffffffffff1916827bffffffffffffffffffffffffffffffffffffffffffffffffffffffff1916148061073f57507f5b5e139f000000000000000000000000000000000000000000000000000000007bffffffffffffffffffffffffffffffffffffffffffffffffffffffff1916827bffffffffffffffffffffffffffffffffffffffffffffffffffffffff1916145b8061074f575061074e8261142d565b5b9050919050565b60606000805461076590613081565b80601f016020809104026020016040519081016040528092919081815260200182805461079190613081565b80156107de5780601f106107b3576101008083540402835291602001916107de565b820191906000526020600020905b8154815290600101906020018083116107c157829003601f168201915b5050505050905090565b60006107f382611497565b610832576040517f08c379a000000000000000000000000000000000000000000000000000000000815260040161082990612cd0565b60405180910390fd5b6004600083815260200190815260200160002060009054906101000a900473ffffffffffffffffffffffffffffffffffffffff169050919050565b600061087882610bf7565b90508073ffffffffffffffffffffffffffffffffffffffff168373ffffffffffffffffffffffffffffffffffffffff1614156108e9576040517f08c379a00000000000000000000000000000000000000000000000000000000081526004016108e090612d10565b60405180910390fd5b8073ffffffffffffffffffffffffffffffffffffffff16610908611503565b73ffffffffffffffffffffffffffffffffffffffff161480610937575061093681610931611503565b611289565b5b610976576040517f08c379a000000000000000000000000000000000000000000000000000000000815260040161096d90612c50565b60405180910390fd5b610980838361150b565b505050565b60085481565b610993611503565b73ffffffffffffffffffffffffffffffffffffffff166109b1610e15565b73ffffffffffffffffffffffffffffffffffffffff1614610a07576040517f08c379a00000000000000000000000000000000000000000000000000000000081526004016109fe90612cf0565b60405180910390fd5b80600b60006101000a81548160ff02191690831515021790555050565b610a35610a2f611503565b826115c4565b610a74576040517f08c379a0000000000000000000000000000000000000000000000000000000008152600401610a6b90612d30565b60405180910390fd5b610a7f8383836116a2565b505050565b610a8c611503565b73ffffffffffffffffffffffffffffffffffffffff16610aaa610e15565b73ffffffffffffffffffffffffffffffffffffffff1614610b00576040517f08c379a0000000000000000000000000000000000000000000000000000000008152600401610af790612cf0565b60405180910390fd5b6000600d60009054906101000a900473ffffffffffffffffffffffffffffffffffffffff1673ffffffffffffffffffffffffffffffffffffffff1647604051610b4890612a5c565b60006040518083038185875af1925050503d8060008114610b85576040519150601f19603f3d011682016040523d82523d6000602084013e610b8a565b606091505b5050905080610bce576040517f08c379a0000000000000000000000000000000000000000000000000000000008152600401610bc590612d90565b60405180910390fd5b50565b610bec838383604051806020016040528060008152506111a5565b505050565b600a5481565b6000806002600084815260200190815260200160002060009054906101000a900473ffffffffffffffffffffffffffffffffffffffff169050600073ffffffffffffffffffffffffffffffffffffffff168173ffffffffffffffffffffffffffffffffffffffff161415610ca0576040517f08c379a0000000000000000000000000000000000000000000000000000000008152600401610c9790612c90565b60405180910390fd5b80915050919050565b60075481565b60008073ffffffffffffffffffffffffffffffffffffffff168273ffffffffffffffffffffffffffffffffffffffff161415610d20576040517f08c379a0000000000000000000000000000000000000000000000000000000008152600401610d1790612c70565b60405180910390fd5b600360008373ffffffffffffffffffffffffffffffffffffffff1673ffffffffffffffffffffffffffffffffffffffff168152602001908152602001600020549050919050565b610d6f611503565b73ffffffffffffffffffffffffffffffffffffffff16610d8d610e15565b73ffffffffffffffffffffffffffffffffffffffff1614610de3576040517f08c379a0000000000000000000000000000000000000000000000000000000008152600401610dda90612cf0565b60405180910390fd5b610ded6000611909565b565b600d60009054906101000a900473ffffffffffffffffffffffffffffffffffffffff1681565b6000600660009054906101000a900473ffffffffffffffffffffffffffffffffffffffff16905090565b610e47611503565b73ffffffffffffffffffffffffffffffffffffffff16610e65610e15565b73ffffffffffffffffffffffffffffffffffffffff1614610ebb576040517f08c379a0000000000000000000000000000000000000000000000000000000008152600401610eb290612cf0565b60405180910390fd5b8181600c9190610ecc92919061215c565b505050565b606060018054610ee090613081565b80601f0160208091040260200160405190810160405280929190818152602001828054610f0c90613081565b8015610f595780601f10610f2e57610100808354040283529160200191610f59565b820191906000526020600020905b815481529060010190602001808311610f3c57829003601f168201915b5050505050905090565b600b60009054906101000a900460ff16610fb2576040517f08c379a0000000000000000000000000000000000000000000000000000000008152600401610fa990612bf0565b60405180910390fd5b60075481610fc09190612f2b565b3414611001576040517f08c379a0000000000000000000000000000000000000000000000000000000008152600401610ff890612c30565b60405180910390fd5b600954816008546110129190612ea4565b1115611053576040517f08c379a000000000000000000000000000000000000000000000000000000000815260040161104a90612db0565b60405180910390fd5b600a5481600e60003373ffffffffffffffffffffffffffffffffffffffff1673ffffffffffffffffffffffffffffffffffffffff168152602001908152602001600020546110a19190612ea4565b11156110e2576040517f08c379a00000000000000000000000000000000000000000000000000000000081526004016110d990612d70565b60405180910390fd5b60005b8181101561118b57600060016008546110fe9190612ea4565b905060086000815480929190611113906130e4565b9190505550600e60003373ffffffffffffffffffffffffffffffffffffffff1673ffffffffffffffffffffffffffffffffffffffff1681526020019081526020016000206000815480929190611168906130e4565b919050555061117733826119cf565b508080611183906130e4565b9150506110e5565b5050565b6111a161119a611503565b83836119ed565b5050565b6111b66111b0611503565b836115c4565b6111f5576040517f08c379a00000000000000000000000000000000000000000000000000000000081526004016111ec90612d30565b60405180910390fd5b61120184848484611b5a565b50505050565b606061121282611497565b611251576040517f08c379a000000000000000000000000000000000000000000000000000000000815260040161124890612d50565b60405180910390fd5b600c61125c83611bb6565b60405160200161126d929190612a2d565b6040516020818303038152906040529050919050565b60095481565b6000600560008473ffffffffffffffffffffffffffffffffffffffff1673ffffffffffffffffffffffffffffffffffffffff16815260200190815260200160002060008373ffffffffffffffffffffffffffffffffffffffff1673ffffffffffffffffffffffffffffffffffffffff16815260200190815260200160002060009054906101000a900460ff16905092915050565b600e6020528060005260406000206000915090505481565b61133d611503565b73ffffffffffffffffffffffffffffffffffffffff1661135b610e15565b73ffffffffffffffffffffffffffffffffffffffff16146113b1576040517f08c379a00000000000000000000000000000000000000000000000000000000081526004016113a890612cf0565b60405180910390fd5b600073ffffffffffffffffffffffffffffffffffffffff168173ffffffffffffffffffffffffffffffffffffffff161415611421576040517f08c379a000000000000000000000000000000000000000000000000000000000815260040161141890612b50565b60405180910390fd5b61142a81611909565b50565b60007f01ffc9a7000000000000000000000000000000000000000000000000000000007bffffffffffffffffffffffffffffffffffffffffffffffffffffffff1916827bffffffffffffffffffffffffffffffffffffffffffffffffffffffff1916149050919050565b60008073ffffffffffffffffffffffffffffffffffffffff166002600084815260200190815260200160002060009054906101000a900473ffffffffffffffffffffffffffffffffffffffff1673ffffffffffffffffffffffffffffffffffffffff1614159050919050565b600033905090565b816004600083815260200190815260200160002060006101000a81548173ffffffffffffffffffffffffffffffffffffffff021916908373ffffffffffffffffffffffffffffffffffffffff160217905550808273ffffffffffffffffffffffffffffffffffffffff1661157e83610bf7565b73ffffffffffffffffffffffffffffffffffffffff167f8c5be1e5ebec7d5bd14f71427d1e84f3dd0314c0f7b2291e5b200ac8c7c3b92560405160405180910390a45050565b60006115cf82611497565b61160e576040517f08c379a000000000000000000000000000000000000000000000000000000000815260040161160590612c10565b60405180910390fd5b600061161983610bf7565b90508073ffffffffffffffffffffffffffffffffffffffff168473ffffffffffffffffffffffffffffffffffffffff16148061165b575061165a8185611289565b5b8061169957508373ffffffffffffffffffffffffffffffffffffffff16611681846107e8565b73ffffffffffffffffffffffffffffffffffffffff16145b91505092915050565b8273ffffffffffffffffffffffffffffffffffffffff166116c282610bf7565b73ffffffffffffffffffffffffffffffffffffffff1614611718576040517f08c379a000000000000000000000000000000000000000000000000000000000815260040161170f90612b70565b60405180910390fd5b600073ffffffffffffffffffffffffffffffffffffffff168273ffffffffffffffffffffffffffffffffffffffff161415611788576040517f08c379a000000000000000000000000000000000000000000000000000000000815260040161177f90612bb0565b60405180910390fd5b611793838383611d63565b61179e60008261150b565b6001600360008573ffffffffffffffffffffffffffffffffffffffff1673ffffffffffffffffffffffffffffffffffffffff16815260200190815260200160002060008282546117ee9190612f85565b925050819055506001600360008473ffffffffffffffffffffffffffffffffffffffff1673ffffffffffffffffffffffffffffffffffffffff16815260200190815260200160002060008282546118459190612ea4565b92505081905550816002600083815260200190815260200160002060006101000a81548173ffffffffffffffffffffffffffffffffffffffff021916908373ffffffffffffffffffffffffffffffffffffffff160217905550808273ffffffffffffffffffffffffffffffffffffffff168473ffffffffffffffffffffffffffffffffffffffff167fddf252ad1be2c89b69c2b068fc378daa952ba7f163c4a11628f55a4df523b3ef60405160405180910390a4611904838383611d68565b505050565b6000600660009054906101000a900473ffffffffffffffffffffffffffffffffffffffff16905081600660006101000a81548173ffffffffffffffffffffffffffffffffffffffff021916908373ffffffffffffffffffffffffffffffffffffffff1602179055508173ffffffffffffffffffffffffffffffffffffffff168173ffffffffffffffffffffffffffffffffffffffff167f8be0079c531659141344cd1fd0a4f28419497f9722a3daafe3b4186f6b6457e060405160405180910390a35050565b6119e9828260405180602001604052806000815250611d6d565b5050565b8173ffffffffffffffffffffffffffffffffffffffff168373ffffffffffffffffffffffffffffffffffffffff161415611a5c576040517f08c379a0000000000000000000000000000000000000000000000000000000008152600401611a5390612bd0565b60405180910390fd5b80600560008573ffffffffffffffffffffffffffffffffffffffff1673ffffffffffffffffffffffffffffffffffffffff16815260200190815260200160002060008473ffffffffffffffffffffffffffffffffffffffff1673ffffffffffffffffffffffffffffffffffffffff16815260200190815260200160002060006101000a81548160ff0219169083151502179055508173ffffffffffffffffffffffffffffffffffffffff168373ffffffffffffffffffffffffffffffffffffffff167f17307eab39ab6107e8899845ad3d59bd9653f200f220920489ca2b5937696c3183604051611b4d9190612af3565b60405180910390a3505050565b611b658484846116a2565b611b7184848484611dc8565b611bb0576040517f08c379a0000000000000000000000000000000000000000000000000000000008152600401611ba790612b30565b60405180910390fd5b50505050565b60606000821415611bfe576040518060400160405280600181526020017f30000000000000000000000000000000000000000000000000000000000000008152509050611d5e565b600082905060005b60008214611c30578080611c19906130e4565b915050600a82611c299190612efa565b9150611c06565b60008167ffffffffffffffff811115611c72577f4e487b7100000000000000000000000000000000000000000000000000000000600052604160045260246000fd5b6040519080825280601f01601f191660200182016040528015611ca45781602001600182028036833780820191505090505b5090505b60008514611d5757600182611cbd9190612f85565b9150600a85611ccc919061312d565b6030611cd89190612ea4565b60f81b818381518110611d14577f4e487b7100000000000000000000000000000000000000000000000000000000600052603260045260246000fd5b60200101907effffffffffffffffffffffffffffffffffffffffffffffffffffffffffffff1916908160001a905350600a85611d509190612efa565b9450611ca8565b8093505050505b919050565b505050565b505050565b611d778383611f5f565b611d846000848484611dc8565b611dc3576040517f08c379a0000000000000000000000000000000000000000000000000000000008152600401611dba90612b30565b60405180910390fd5b505050565b6000611de98473ffffffffffffffffffffffffffffffffffffffff16612139565b15611f52578373ffffffffffffffffffffffffffffffffffffffff1663150b7a02611e12611503565b8786866040518563ffffffff1660e01b8152600401611e349493929190612aa7565b602060405180830381600087803b158015611e4e57600080fd5b505af1925050508015611e7f57506040513d601f19601f82011682018060405250810190611e7c9190612513565b60015b611f02573d8060008114611eaf576040519150601f19603f3d011682016040523d82523d6000602084013e611eb4565b606091505b50600081511415611efa576040517f08c379a0000000000000000000000000000000000000000000000000000000008152600401611ef190612b30565b60405180910390fd5b805181602001fd5b63150b7a0260e01b7bffffffffffffffffffffffffffffffffffffffffffffffffffffffff1916817bffffffffffffffffffffffffffffffffffffffffffffffffffffffff191614915050611f57565b600190505b949350505050565b600073ffffffffffffffffffffffffffffffffffffffff168273ffffffffffffffffffffffffffffffffffffffff161415611fcf576040517f08c379a0000000000000000000000000000000000000000000000000000000008152600401611fc690612cb0565b60405180910390fd5b611fd881611497565b15612018576040517f08c379a000000000000000000000000000000000000000000000000000000000815260040161200f90612b90565b60405180910390fd5b61202460008383611d63565b6001600360008473ffffffffffffffffffffffffffffffffffffffff1673ffffffffffffffffffffffffffffffffffffffff16815260200190815260200160002060008282546120749190612ea4565b92505081905550816002600083815260200190815260200160002060006101000a81548173ffffffffffffffffffffffffffffffffffffffff021916908373ffffffffffffffffffffffffffffffffffffffff160217905550808273ffffffffffffffffffffffffffffffffffffffff16600073ffffffffffffffffffffffffffffffffffffffff167fddf252ad1be2c89b69c2b068fc378daa952ba7f163c4a11628f55a4df523b3ef60405160405180910390a461213560008383611d68565b5050565b6000808273ffffffffffffffffffffffffffffffffffffffff163b119050919050565b82805461216890613081565b90600052602060002090601f01602090048101928261218a57600085556121d1565b82601f106121a357803560ff19168380011785556121d1565b828001600101855582156121d1579182015b828111156121d05782358255916020019190600101906121b5565b5b5090506121de91906121e2565b5090565b5b808211156121fb5760008160009055506001016121e3565b5090565b600061221261220d84612e10565b612deb565b90508281526020810184848401111561222a57600080fd5b61223584828561303f565b509392505050565b60008135905061224c816137ee565b92915050565b60008135905061226181613805565b92915050565b6000813590506122768161381c565b92915050565b60008151905061228b8161381c565b92915050565b600082601f8301126122a257600080fd5b81356122b28482602086016121ff565b91505092915050565b60008083601f8401126122cd57600080fd5b8235905067ffffffffffffffff8111156122e657600080fd5b6020830191508360018202830111156122fe57600080fd5b9250929050565b60008135905061231481613833565b92915050565b60006020828403121561232c57600080fd5b600061233a8482850161223d565b91505092915050565b6000806040838503121561235657600080fd5b60006123648582860161223d565b92505060206123758582860161223d565b9150509250929050565b60008060006060848603121561239457600080fd5b60006123a28682870161223d565b93505060206123b38682870161223d565b92505060406123c486828701612305565b9150509250925092565b600080600080608085870312156123e457600080fd5b60006123f28782880161223d565b94505060206124038782880161223d565b935050604061241487828801612305565b925050606085013567ffffffffffffffff81111561243157600080fd5b61243d87828801612291565b91505092959194509250565b6000806040838503121561245c57600080fd5b600061246a8582860161223d565b925050602061247b85828601612252565b9150509250929050565b6000806040838503121561249857600080fd5b60006124a68582860161223d565b92505060206124b785828601612305565b9150509250929050565b6000602082840312156124d357600080fd5b60006124e184828501612252565b91505092915050565b6000602082840312156124fc57600080fd5b600061250a84828501612267565b91505092915050565b60006020828403121561252557600080fd5b60006125338482850161227c565b91505092915050565b6000806020838503121561254f57600080fd5b600083013567ffffffffffffffff81111561256957600080fd5b612575858286016122bb565b92509250509250929050565b60006020828403121561259357600080fd5b60006125a184828501612305565b91505092915050565b6125b381612fcb565b82525050565b6125c281612fb9565b82525050565b6125d181612fdd565b82525050565b60006125e282612e56565b6125ec8185612e6c565b93506125fc81856020860161304e565b6126058161321a565b840191505092915050565b600061261b82612e61565b6126258185612e88565b935061263581856020860161304e565b61263e8161321a565b840191505092915050565b600061265482612e61565b61265e8185612e99565b935061266e81856020860161304e565b80840191505092915050565b6000815461268781613081565b6126918186612e99565b945060018216600081146126ac57600181146126bd576126f0565b60ff198316865281860193506126f0565b6126c685612e41565b60005b838110156126e8578154818901526001820191506020810190506126c9565b838801955050505b50505092915050565b6000612706603283612e88565b91506127118261322b565b604082019050919050565b6000612729602683612e88565b91506127348261327a565b604082019050919050565b600061274c602583612e88565b9150612757826132c9565b604082019050919050565b600061276f601c83612e88565b915061277a82613318565b602082019050919050565b6000612792602483612e88565b915061279d82613341565b604082019050919050565b60006127b5601983612e88565b91506127c082613390565b602082019050919050565b60006127d8602283612e88565b91506127e3826133b9565b604082019050919050565b60006127fb602c83612e88565b915061280682613408565b604082019050919050565b600061281e602b83612e88565b915061282982613457565b604082019050919050565b6000612841603883612e88565b915061284c826134a6565b604082019050919050565b6000612864602a83612e88565b915061286f826134f5565b604082019050919050565b6000612887602983612e88565b915061289282613544565b604082019050919050565b60006128aa602083612e88565b91506128b582613593565b602082019050919050565b60006128cd602c83612e88565b91506128d8826135bc565b604082019050919050565b60006128f0600583612e99565b91506128fb8261360b565b600582019050919050565b6000612913602083612e88565b915061291e82613634565b602082019050919050565b6000612936602183612e88565b91506129418261365d565b604082019050919050565b6000612959600083612e7d565b9150612964826136ac565b600082019050919050565b600061297c603183612e88565b9150612987826136af565b604082019050919050565b600061299f601583612e88565b91506129aa826136fe565b602082019050919050565b60006129c2602283612e88565b91506129cd82613727565b604082019050919050565b60006129e5600f83612e88565b91506129f082613776565b602082019050919050565b6000612a08602c83612e88565b9150612a138261379f565b604082019050919050565b612a2781613035565b82525050565b6000612a39828561267a565b9150612a458284612649565b9150612a50826128e3565b91508190509392505050565b6000612a678261294c565b9150819050919050565b6000602082019050612a8660008301846125b9565b92915050565b6000602082019050612aa160008301846125aa565b92915050565b6000608082019050612abc60008301876125b9565b612ac960208301866125b9565b612ad66040830185612a1e565b8181036060830152612ae881846125d7565b905095945050505050565b6000602082019050612b0860008301846125c8565b92915050565b60006020820190508181036000830152612b288184612610565b905092915050565b60006020820190508181036000830152612b49816126f9565b9050919050565b60006020820190508181036000830152612b698161271c565b9050919050565b60006020820190508181036000830152612b898161273f565b9050919050565b60006020820190508181036000830152612ba981612762565b9050919050565b60006020820190508181036000830152612bc981612785565b9050919050565b60006020820190508181036000830152612be9816127a8565b9050919050565b60006020820190508181036000830152612c09816127cb565b9050919050565b60006020820190508181036000830152612c29816127ee565b9050919050565b60006020820190508181036000830152612c4981612811565b9050919050565b60006020820190508181036000830152612c6981612834565b9050919050565b60006020820190508181036000830152612c8981612857565b9050919050565b60006020820190508181036000830152612ca98161287a565b9050919050565b60006020820190508181036000830152612cc98161289d565b9050919050565b60006020820190508181036000830152612ce9816128c0565b9050919050565b60006020820190508181036000830152612d0981612906565b9050919050565b60006020820190508181036000830152612d2981612929565b9050919050565b60006020820190508181036000830152612d498161296f565b9050919050565b60006020820190508181036000830152612d6981612992565b9050919050565b60006020820190508181036000830152612d89816129b5565b9050919050565b60006020820190508181036000830152612da9816129d8565b9050919050565b60006020820190508181036000830152612dc9816129fb565b9050919050565b6000602082019050612de56000830184612a1e565b92915050565b6000612df5612e06565b9050612e0182826130b3565b919050565b6000604051905090565b600067ffffffffffffffff821115612e2b57612e2a6131eb565b5b612e348261321a565b9050602081019050919050565b60008190508160005260206000209050919050565b600081519050919050565b600081519050919050565b600082825260208201905092915050565b600081905092915050565b600082825260208201905092915050565b600081905092915050565b6000612eaf82613035565b9150612eba83613035565b9250827fffffffffffffffffffffffffffffffffffffffffffffffffffffffffffffffff03821115612eef57612eee61315e565b5b828201905092915050565b6000612f0582613035565b9150612f1083613035565b925082612f2057612f1f61318d565b5b828204905092915050565b6000612f3682613035565b9150612f4183613035565b9250817fffffffffffffffffffffffffffffffffffffffffffffffffffffffffffffffff0483118215151615612f7a57612f7961315e565b5b828202905092915050565b6000612f9082613035565b9150612f9b83613035565b925082821015612fae57612fad61315e565b5b828203905092915050565b6000612fc482613015565b9050919050565b6000612fd682613015565b9050919050565b60008115159050919050565b60007fffffffff0000000000000000000000000000000000000000000000000000000082169050919050565b600073ffffffffffffffffffffffffffffffffffffffff82169050919050565b6000819050919050565b82818337600083830152505050565b60005b8381101561306c578082015181840152602081019050613051565b8381111561307b576000848401525b50505050565b6000600282049050600182168061309957607f821691505b602082108114156130ad576130ac6131bc565b5b50919050565b6130bc8261321a565b810181811067ffffffffffffffff821117156130db576130da6131eb565b5b80604052505050565b60006130ef82613035565b91507fffffffffffffffffffffffffffffffffffffffffffffffffffffffffffffffff8214156131225761312161315e565b5b600182019050919050565b600061313882613035565b915061314383613035565b9250826131535761315261318d565b5b828206905092915050565b7f4e487b7100000000000000000000000000000000000000000000000000000000600052601160045260246000fd5b7f4e487b7100000000000000000000000000000000000000000000000000000000600052601260045260246000fd5b7f4e487b7100000000000000000000000000000000000000000000000000000000600052602260045260246000fd5b7f4e487b7100000000000000000000000000000000000000000000000000000000600052604160045260246000fd5b6000601f19601f8301169050919050565b7f4552433732313a207472616e7366657220746f206e6f6e20455243373231526560008201527f63656976657220696d706c656d656e7465720000000000000000000000000000602082015250565b7f4f776e61626c653a206e6577206f776e657220697320746865207a65726f206160008201527f6464726573730000000000000000000000000000000000000000000000000000602082015250565b7f4552433732313a207472616e736665722066726f6d20696e636f72726563742060008201527f6f776e6572000000000000000000000000000000000000000000000000000000602082015250565b7f4552433732313a20746f6b656e20616c7265616479206d696e74656400000000600082015250565b7f4552433732313a207472616e7366657220746f20746865207a65726f2061646460008201527f7265737300000000000000000000000000000000000000000000000000000000602082015250565b7f4552433732313a20617070726f766520746f2063616c6c657200000000000000600082015250565b7f4d696e74696e67206973206e6f74207075626c69632f656e61626c656420796560008201527f7421000000000000000000000000000000000000000000000000000000000000602082015250565b7f4552433732313a206f70657261746f7220717565727920666f72206e6f6e657860008201527f697374656e7420746f6b656e0000000000000000000000000000000000000000602082015250565b7f57726f6e67206d696e742076616c756520284d61796265206e6f7420656e6f7560008201527f67682062616c616e636529000000000000000000000000000000000000000000602082015250565b7f4552433732313a20617070726f76652063616c6c6572206973206e6f74206f7760008201527f6e6572206e6f7220617070726f76656420666f7220616c6c0000000000000000602082015250565b7f4552433732313a2062616c616e636520717565727920666f7220746865207a6560008201527f726f206164647265737300000000000000000000000000000000000000000000602082015250565b7f4552433732313a206f776e657220717565727920666f72206e6f6e657869737460008201527f656e7420746f6b656e0000000000000000000000000000000000000000000000602082015250565b7f4552433732313a206d696e7420746f20746865207a65726f2061646472657373600082015250565b7f4552433732313a20617070726f76656420717565727920666f72206e6f6e657860008201527f697374656e7420746f6b656e0000000000000000000000000000000000000000602082015250565b7f2e6a736f6e000000000000000000000000000000000000000000000000000000600082015250565b7f4f776e61626c653a2063616c6c6572206973206e6f7420746865206f776e6572600082015250565b7f4552433732313a20617070726f76616c20746f2063757272656e74206f776e6560008201527f7200000000000000000000000000000000000000000000000000000000000000602082015250565b50565b7f4552433732313a207472616e736665722063616c6c6572206973206e6f74206f60008201527f776e6572206e6f7220617070726f766564000000000000000000000000000000602082015250565b7f546f6b656e20646f6573206e6f74206578697374210000000000000000000000600082015250565b7f45786365656420616d6f756e74206f66206d696e7473207065722077616c6c6560008201527f7421000000000000000000000000000000000000000000000000000000000000602082015250565b7f7769746864726177206661696c65640000000000000000000000000000000000600082015250565b7f54686520737570706c79206f66206d696e74206973206e6f7420656e6f75676860008201527f212028534f4c44204f5554290000000000000000000000000000000000000000602082015250565b6137f781612fb9565b811461380257600080fd5b50565b61380e81612fdd565b811461381957600080fd5b50565b61382581612fe9565b811461383057600080fd5b50565b61383c81613035565b811461384757600080fd5b5056fea26469706673582212208ced876d6a23f8cc145d5878f453b41f985607bdcfd204c589133a54a4b7689c64736f6c63430008040033",
    "linkReferences": {},
    "deployedLinkReferences": {}
}